:020000041000EA
:1000000000B5324B212058609868022188439860DF
:10001000D860186158612E4B002199600221596106
:100020000121F02299502B49196001219960352056
:1000300000F044F80222904214D00621196600F024
:1000400034F8196E01211966002018661A6600F04E
:100050002CF8196E196E196E052000F02FF8012189
:100060000842F9D1002199601B49196000215960AB
:100070001A491B48016001219960EB211966A021F2
:10008000196600F012F800219960164914480160C1
:100090000121996001BC002800D000471248134993
:1000A000086003C880F30888084703B5996A0420EC
:1000B0000142FBD001200142F8D103BD02B5186610
:1000C0001866FFF7F2FF186E186E02BD00000240BE
:1000D000000000180000070000035F00212200005C
:1000E000F4000018222000A00001001008ED00E03C
:1000F00000000000000000000000000074B24E7A12
:1001000000200420F7010010C3010010593901102C
:10011000C1010010C1010010C1010010C101001097
:10012000C1010010C1010010C1010010C701001081
:10013000C1010010C1010010C9010010CB01001065
:10014000CD010010CD010010CD010010CD01001037
:10015000CD010010CD010010CD010010CD01001027
:10016000CD010010CD010010CD010010CD01001017
:10017000CD010010CD010010CD010010CD01001007
:10018000CD010010CD010010CD010010CD010010F7
:10019000CD010010CD010010CD010010CD010010E7
:1001A000CD010010CD010010CD010010CD010010D7
:1001B000CD010010CD010010CD010010CD010010C7
:1001C00000BE00BE00BE00BE00BE00BEEFF3058054
:1001D000103800BEF2EB88710492011024920110D5
:1001E0003402001090A31AE700201F49086006C8D7
:1001F00081F3088810471D48006800282FD10DA4FE
:100200000ECC002902D000F012F8F9E71849194A7B
:10021000002000E001C19142FCD1174988471749ED
:1002200088471749884700BEFDE701C901C29A42C5
:10023000FBD3704724920110C00000203C22002014
:10024000A0B301100000042000000420A0B301109E
:10025000001004200010042000000000704709482E
:1002600004F0C6FE0047000008ED00E0000000D0EA
:100270000024002088430020C9370010C90800105E
:10028000F13800105756000006005250ABB36053CF
:100290002874011006005250861C030238740110A5
:1002A000060052505422A29D407401100500525085
:1002B000DE65F468A0B30110F8B5C0460448054BEC
:1002C00010B5834203D0044B002B00D0984710BDDB
:1002D0003C2200203C220020000000000648074984
:1002E000091A8B10C90FC91810B5491003D0044B57
:1002F000002B00D0984710BD3C2200203C2200205B
:100300000000000010B5074C2378002B09D1FFF73F
:10031000D5FF054B002B02D0044800E000BF0123AD
:10032000237010BD5037002000000000085101105C
:10033000054B10B5002B03D00449054800E000BF71
:10034000FFF7CCFF10BDC04600000000543700206E
:100350000851011001207047002801D10148704761
:100360000020FCE768150020F0B5CE46474680B572
:10037000944C85B002AF2000934913F06DFF032128
:10038000042001F03BF90321052001F037F9002298
:100390000121042001F04AF900220121052001F089
:1003A00045F98A4B9846033BFDD20025884B894E80
:1003B000BB8068210223200000953A1D13F076FFD0
:1003C0003300033BFDD24346033BFDD29F239B00FA
:1003D000BB8068210223200000953A1D13F066FFC0
:1003E0003300033BFDD259236821BB8020000095D8
:1003F000573B3A1D13F05AFF3300033BFDD2764BB7
:10040000E8469C46E54402AB99465E234A460920ED
:100410001370802271496844920105F0B3FD4A4689
:10042000682120006E4B009513F040FF3300033B22
:10043000FDD25A23C546FF33BB80583B68212000BC
:100440000095FF3B3A1D13F031FF3300033BFDD213
:10045000644B033BFDD22123FA1CFB706821200072
:100460000095203B13F022FF3A1D01236821200054
:10047000009513F083FF5C4B6821BB8020000223B2
:1004800000953A1D13F012FF3300033BFDD2574B8A
:100490006821BB802000022300953A1D13F006FF5F
:1004A0003300033BFDD241236821BB80200000952F
:1004B0003F3B3A1D13F0FAFE3300033BFDD24C4B99
:1004C0006821BB802000022300953A1D13F0EEFE48
:1004D0003300033BFDD2474B6821BB802000022341
:1004E00000953A1D13F0E2FE3300033BFDD2424B70
:1004F0006821BB802000022300953A1D13F0D6FE30
:100500003300033BFDD247236821BB8020000095C8
:10051000453B3A1D13F0CAFE3300033BFDD2962340
:100520009B00BB8068210223200000953A1D13F038
:10053000BDFE3300033BFDD2304B6821BB80200061
:10054000022300953A1D13F0B1FE3300033BFDD2A8
:1005500048236821BB8020000095463B3A1D13F0DC
:10056000A5FE3300033BFDD2254B6821BB80200054
:10057000022300953A1D13F099FE3300033BFDD290
:100580005F23FA1CFB706821200000955E3B13F08E
:100590008DFE3A1D012368212000009513F0EEFE28
:1005A000184B6821BB802000022300953A1D13F0F0
:1005B0007DFE033EFDD2BD4603B0C0BCB946B04689
:1005C000F0BDC046B419002040420F00504B14004B
:1005D0007EB6FFFFCAE90000F8DFFFFF08510110F7
:1005E00001200000A096280040ACFFFF42ECFFFF76
:1005F000430B00004502000046060000530A0000BD
:1006000049C0FFFF7D0600000F22F0B5262300271A
:1006100005000E0085B0094C6A4413706821200063
:100620000097253B13F042FE33002A00682120008A
:10063000009713F0A3FE05B0F0BDC046B41900202A
:100640000D2270B5242300260E2584B0094C6A447F
:1006500013706D44682120000096233B13F026FEA2
:1006600002232A0068212000009613F087FE2888C4
:1006700004B070BDB4190020F0B5CE46474624231F
:1006800080B585B002AF7B7100239846294E682162
:1006900000937A1D01330500300013F007FE434636
:1006A0006821009330000233BA1D13F067FEFB8807
:1006B00001209946002B37D06A460733DB08DB0060
:1006C000D31A9D462623BB71434668210093BA1D69
:1006D0000133300013F0EAFD434602AC22000093E0
:1006E00068214B46300013F049FE002063782278E1
:1006F0001B021343EB80E378A2781B0213432B8188
:10070000637922791B0213436B81E379A2791B027F
:1007100013432B80637A227A1B0213436B80E37AA4
:10072000A27A1B021343AB80BD4603B0C0BCB946DE
:10073000B046F0BDB419002010B50B00012208210D
:1007400000F0BAFF10BDC046C823DB00984202D2B9
:100750000122014B1A70704783430020134B70B580
:100760001B78002B0CD0C8252D01AC461048114930
:1007700002680B68104CD21A237863449A4206D060
:1007800000220E4B1A7001220D4B1A7070BD01220F
:1007900003680B60094B1A7000F0BEFC2378013B24
:1007A000DBB2002B00D140232370ECE77343002021
:1007B000C4380020043900209C1800207543002014
:1007C00074430020F0B5DE464E4645465746E0B538
:1007D0008DB004AA944607236344994601234A46F0
:1007E0001370FFF7C1FD06203049FFF7A5FFC020B9
:1007F000000205F0CDFB802500262D4C01902378CA
:10080000002BFCD02670FFF71BFF013D0100ADB2AD
:100810000020FFF7F9FE002DF1D10122254B264FD4
:100820001A70264B9A4606AB9846254B0293254BE9
:1008300003934946504602F0E5FB2378002BF8D09D
:10084000002340462370FFF717FF0128F1D0C02195
:100850003868C90004F026FC4246019B4D019C46C5
:1008600009AB43CA43C33B6865449B46029B0021D6
:100870001B782022DBB22800009305F07DFB2A00C4
:1008800009AB43CB43C25A46C021009BEA602B749C
:100890003B68C90001333B60386804F003FC002961
:1008A000C7D10199039802F0ADFBC2E75D070010C4
:1008B0007443002073430020C4380020F03E002021
:1008C00075430020B4380020F0B5DE4657464E464A
:1008D0004546E0B5BF4CA54405F038FD04AA944652
:1008E000A521F122BC4BD200C900BC48634462443C
:1008F000614400F079FC002803D1B948B74902F0FF
:10090000FBFF04AA9446B44B63441A68F123DB004E
:1009100063441968A523DB006344186800F028FCD1
:10092000192000F03FFFD02380221B0692045A6258
:10093000AC4B033BFDD201F007F8AB4A0300019238
:1009400010000122110002F04BFB04AA9446A24BB6
:100950006344180000F0FAF91322A4491EA800F01D
:10096000FDF904A91EA800F035FA0023984200D131
:100970002CE11EA8049300F023FA04991EA800F0AD
:100980003FFA1EA800F000FA9949049A06A804F05C
:10099000C7FA0A2206A9B6A800F0E0F99549049A18
:1009A0000EA804F0BDFA9449049A16A804F0B8FA07
:1009B00004A8A5238446DB0063440A2218000EA97C
:1009C00000F0CCF904A8F1238446DB00634418004E
:1009D0000A2216A900F0C2F901F0DAFC04000200B4
:1009E0008649052000F058F923001622092101202C
:1009F00000F070FA00F0A8FFC021814A030009024C
:100A000010000292012202F0EBFA7E4807F058FE35
:100A1000C020000205F0BCFA05008020C00005F0EF
:100A2000B7FA00230093784B784E9946784B794F6C
:100A30009A46794B05900393784B9B46784B9846A2
:100A40003B78002B00D099E04346002101989C6A36
:100A500002F010FB4B46002849D11B68E31A32789C
:100A6000002A36D1039A1278012A71D95B466D4A61
:100A70001B68E31A93420CD98023D0229B041206F0
:100A8000536153461C605B461C600123039A33701C
:100A9000137005A800F000FB002845D105A800F060
:100AA0001BFB002826D12900029802F0E3FA002857
:100AB000C6D0C02229001202B6A800F05DF9009B42
:100AC00001339AB200921B07BAD1B6A800F050F9D0
:100AD000B6E75346544A1B68E31A9342D9D9802398
:100AE000D0229B041206936100233370D1E71C606F
:100AF0000023B4E704A8F12384468022DB0063448A
:100B000005991800D20000F037F904AAF1239446A1
:100B1000DB006344180000F02BF92900029802F072
:100B2000A9FA0028C5D18BE704A8A5238446802212
:100B3000DB00634418000599D20000F01DF904AAF7
:100B4000A5239446DB006344180000F011F9A5E7E3
:100B5000514636480968611A814287D934498B4227
:100B600084D8D02380211B06890459610123514672
:100B7000D2183370039B0C601A708AE7B6A800F095
:100B800003F904AAA5239446DB006344180000F08F
:100B9000FBF804AAF1239446DB006344180000F03C
:100BA000F3F800F003F9192000F0FCFDD0228021B9
:100BB000120689041F4C2048516223005161033BF7
:100BC000FDD203009161033BFDD2F6E7049B0133A4
:100BD000CFE6C0469CF3FFFFE8090000880702004B
:100BE0001071011000ADB51FF03E0020087101101A
:100BF00044710110507101105C710110490700101F
:100C0000B4380020C5070010FC38002078430020CD
:100C1000003900208343002077430020F83800206B
:100C20000040054040420F0050C30000A086010074
:100C300087130000504B1400907865000822024B87
:100C400001201A607047C04600E00440082280215D
:100C50000D4B10B51A600D4A4900D06880B2136878
:100C60000B42FCD093680B4206D18021074B490010
:100C7000DA689A680A42FBD0054B1B6898478022C5
:100C8000044BD2031A6010BD00F0044000C00440C1
:100C9000D438002080E200E070B584B00400150074
:100CA0000E0013F0B3FB1F211D2000F0A7FC002253
:100CB00000211D2000F0BAFC00211D2000F05EFD87
:100CC000C023184A9B01116816204B40E021C9013E
:100CD0000B4015490B6001239361144B14491A68AA
:100CE000144B5340144A1340144A1360144B1E60B3
:100CF00000F08CFE0121162000F044FEFA220023B1
:100D00002000E117920004F0F5FF0B000D490200EE
:100D10000291002101910C492800009101F002FC90
:100D200004B070BD00C0044000D0044008C00440BE
:100D30004D0C0010010000010F00000F08D004400E
:100D4000D4380020003400203D0C001010B50122E2
:100D500001490BF01DFF10BD0883011010B50BF009
:100D6000FBFFF7231840431E9841C0B210BDC04698
:100D700010B50DF025F810BD00B583B001AB0CF037
:100D800051FD019803B000BD10B50DF07DF9041EB2
:100D900000D110BD12F018FE034B01002200180014
:100DA00005F0C8FAF5E7C0466871011010B50022D9
:100DB000002002490BF0ECFE10BDC0460883011074
:100DC00010B504000DF04AFC0022002320000DF0B5
:100DD00097F910BD10B588B002000C0068462021BC
:100DE0000DF0C4FC002808D00A220021684614F047
:100DF000D1F82060002008B010BDFE20FBE7C046FF
:100E000010B5034B0A0019000DF082FE10BDC0465C
:100E10008071011070B501242600254BA0211868AF
:100E2000244A8640C9058D58354205D0224D2C7084
:100E30008E506A78002A38D101242600A0215868F3
:100E40001C4A8640C9058D582E4205D01A4D6C703B
:100E50008E502A78002A25D101242600A0219868E6
:100E6000144A8640C9058D582E4205D0124DAC70EB
:100E70008E50EA78002A12D101200500A021DB68FB
:100E80000C4A9D40C9058C58254207D00A4CE07099
:100E90008D50A378002B01D00023A37070BD0022D9
:100EA000EA70E9E700222A70D6E700226A70C3E7F9
:100EB000D83800201C040000CC380020044B00204F
:100EC0001A7801239340D0221206002193617047C3
:100ED00076430020F0B5DE4657464E464546E0B51F
:100EE00007000E00140083B05E495F481D0002F049
:100EF000F9F85C495D4802F0F5F83800022100F08D
:100F00007DFB3000022100F079FB200000F04AFC5C
:100F10000123D022A34012065362554B1C70554B3F
:100F20001D600025BFF35B8F534F544C544E01207E
:100F300012F092FE8023DB009C467751605104350D
:100F40006744102DF3D12368A0209A46DB0299460E
:100F50004D4662684B49D3028C460D404A491D43B9
:100F600088460D43C0055146834637683E4889018F
:100F7000594408604F608027FF008F600D61012594
:100F800057462900B9408A4657464049DA460F601D
:100F900067463B404F463B4347461F43736899466D
:100FA00093015B441860484658608020C0009860F8
:100FB0001F612B0093400B60A36862469946DB02D9
:100FC0009B465846E368324F98460240DB021A437C
:100FD0003A431700B268254801924A4692015244AA
:100FE00010608246019850608020C00090601761B8
:100FF00048462A0082400A60624613405A4613431C
:10100000234A1A43F368A0261000F6054246B44668
:10101000564692016244166053608023DB00936061
:1010200010612B00424693400C200B60194900F0E0
:10103000EDFC01210C2000F0A5FC29002368A02272
:1010400099408623D205DB00D150A1688D40D55050
:10105000BFF35B8F03B0F0BCBB46B246A946A046C7
:10106000F0BDC046D8EC0D000040034000800340B6
:1010700076430020D038002000240020D8380020FB
:10108000E83800203D0000FFA1860A00142400502B
:10109000A1860B00150E00100D4A10B51178030043
:1010A000CCB2002904D15178C8B2002909D110BDB1
:1010B00000211170BFF35B8F064A126801201A608D
:1010C000F5E75470BFF35B8F024A5268F6E7C046FB
:1010D000CC380020E838002010B50D4A0300917884
:1010E000CCB2002904D1D178C8B2002909D110BDF1
:1010F00000219170BFF35B8F064A926801201A604D
:10110000F5E7D470BFF35B8F024AD268F6E7C046BA
:10111000CC380020E838002010B5114B84B01A7884
:1011200001239340D022120653610E4B1C6801F03C
:1011300063FCFA220023920012184B418021090619
:101140008B4202D30122084B5242002102910191AD
:1011500006492000009101F01FF904B010BDC046FF
:1011600076430020D0380020FFFFFF7FBD0E001027
:10117000F0B583B005000E00140000F049FB002814
:1011800001D003B0F0BD154F01223B0001210097B3
:10119000053002F06BF833002A000094012110485A
:1011A00002F058FA21002800714303F07BFF04008D
:1011B0000C4B002200930221042002F057F8230078
:1011C000002201210094052002F050F83B00022289
:1011D00000210097062002F049F8D2E7006CDC02FB
:1011E00000800240001BB700F0B54E4691467D4A94
:1011F00045469046A0225746DE465200E0B517000D
:10120000424606008A4683B000920193009B764ACC
:10121000934209D9754A009B9446013F6344009369
:101220000F2FF3D100206EE01D00714B31219C4641
:101230006544280003F036FF864200D1BCE0072455
:10124000631EB8469B4637002E005D46654330005E
:10125000290003F027FF874246D0A31E9B46022C9D
:1012600000D1ADE02D1B2900300003F01BFF8742A9
:1012700050D0E31E9B46032C52D02D1B290030007A
:1012800003F010FF874253D0231F9B46042C55D0F8
:101290002D1B2900300003F005FF874259D0631F42
:1012A0009B46052C5BD02D1B2900300003F0FAFE75
:1012B00087425CD0062C5ED03000E91F03F0F2FEBE
:1012C000B84263D0242130000624242503F0EAFE2E
:1012D000874261D005239B465D4665433000290067
:1012E00003F0E0FE8742B8D10029B6D15D46D3466F
:1012F000C246019B52463F49012051435A46116064
:101300004A4614601D6003B0F0BCBB46B246A94615
:10131000A046F0BD0029E9D0E31E9B46032CACD1CA
:1013200002240425B3089F4236D001239B468CE754
:101330000029DBD0231F9B46042CA9D109213000B2
:101340000324092503F0AEFE874225D002239B46E5
:101350007BE70029CAD0631F9B46052CA3D1042438
:10136000102533099F4217D003239B466DE70029C0
:10137000BCD0062CA0D1192130000524192503F07A
:1013800091FE874208D004239B465EE7002923D0C4
:10139000052306249B4658E7AB4635003E004746EA
:1013A0005946280003F07EFE002900D048E7D346C6
:1013B0002500BA46019B9DE7312307249B46EFE7B2
:1013C00035003E004746B54200D023E7D34601240E
:1013D000C2460125019B8DE7D3460724C24601255D
:1013E000019B87E750262F0050F80C0020D1FFFF0B
:1013F000B0710B00001BB700D0231B061B687B4A93
:1014000099005258F0B5574692465A1E93413022E1
:10141000DE464E4645465B421A401300744AE0B52C
:10142000944683B063440193724B884608260F2785
:101430009B463500083DEA081300019908339B00DC
:101440005C58002C22D0012399465346002B27D00C
:1014500039002140274213D05B4642469A584B46FA
:10146000AB401A420CD1072208002A40920090405B
:101470000200EB0860483C339B001A502800D0471C
:1014800024090135002C01D0AE42E1D80836282EBF
:10149000CFD103B0F0BCBB46B246A946A046F0BDD2
:1014A00039002140274206D00133AB404546514820
:1014B0004059184276D02309E8D00F221100194074
:1014C0001A420DD04546F31F0E3A9A4049484059FA
:1014D000104205D1DB08484A3C3309019B00995072
:1014E000230AD3D00F22110019401A420DD04546CD
:1014F000B31F0E3A9A403F484059104205D1DB08CD
:101500003D4A3C3309029B009950230BBED00F2269
:10151000110019401A4236D1230CB7D00F22110006
:1015200019401A4243D1230DB0D00F2211001940A7
:101530001A424BD1230EA9D00F22110019401A4292
:101540000DD04546B31E0E3A9A402A4840591042E3
:1015500005D1DB08284A3C3309069B009950240F2B
:10156000721E002C00D191E701234046934021498F
:101570000958194200D089E7D3083C331E4A240792
:101580009B009C5082E74546731F0E3A9A401948CB
:1015900040591042C0D1DB08174A3C3309039B0075
:1015A0009950B9E7144B3C329200D15083E745463D
:1015B000331F0E3A9A400F4840591042B3D1DB080E
:1015C0000D4A3C3309049B009950ACE74546F31E95
:1015D0000E3A9A40074840591042ABD1DB08064A00
:1015E0003C3309059B009950A4E7C046643E0020A7
:1015F000004101402843002000400140094A10B545
:1016000094464024830063441A68C00062408034DA
:1016100014408022520113431C60034B9C466044DB
:10162000416010BD04C0014000400140074B8000F4
:101630009C4660440368C90092000A435A400C2348
:101640001A4080235B0103431A60704704C00140C5
:10165000084B80009C466044002905D0802302226C
:101660009B0103431A607047C02302229B0103437E
:101670001A60F8E704C00140064B80009C466044B5
:1016800003684B400121194080235B01034319602B
:101690007047C04604C00140064B80009C46604431
:1016A000036809015940802330225B010A4003434B
:1016B0001A60704704C00140F8B51D00D0231B0616
:1016C0001C680600604244412F206442844327483E
:1016D000F708844607203040800081403800244EBF
:1016E0003C3064448000BF008151E419002A11D0CD
:1016F00080229201224311601C681E4EA400A3594F
:10170000002B15D0002D25D0A55101210D2000F072
:1017100039F9F8BDC0229201224311601C68154EB0
:10172000A400A359002B0CD0002D18D0A551F0E730
:10173000002DEAD000220D200F49A55100F090F9AC
:10174000E3E7002DE5D000220D200B49A55100F064
:1017500087F9DEE70D20084900F07CFAD4E70D2078
:10176000054900F077FAA551D3E7C0463041014062
:1017700000400140643E0020F9130010084B800037
:101780009C466044002905D0802340229B010343EE
:101790001A607047C02340229B0103431A60F8E798
:1017A00004C001400123D02283401206936293615A
:1017B000094A40219446830063441A68C0004A40A5
:1017C000803111408022520113431960034B9C4623
:1017D000052360444360704704C00140004001405D
:1017E000094A40219446830063441A68C0004A4075
:1017F000803111408022520113431960034B9C46F3
:101800001F2360444360704704C001400040014012
:10181000024B18688007C00F7047C04600C00640E2
:10182000EFF3108072B6034A1368002BFCD0BFF3AD
:101830005F8F70472C0100D0BFF35F8F0022024BF7
:101840001A6080F3108870472C0100D070B5EFF358
:10185000108C72B60D4D2B68002BFCD0BFF35F8F40
:101860000724CB08C618C05C01230C40A3401C0011
:101870000440034207D118433070BFF35F8F2C60E0
:101880008CF3108870BD100002F036F82C0100D0E7
:10189000F8B54746CE46884680B5EFF3108C72B651
:1018A000214D2C68002CFCD0BFF35F8F9A422CD8BE
:1018B000D4080727055D061901241740BC402C42B7
:1018C0001FD007210127894609E0D408055D0619C4
:1018D0004C4639001440A1400C00294211D001327D
:1018E0009342F2D201204042BFF35F8F00220E4BA1
:1018F0001A608CF3108800280FDBC0BCB946B046D4
:10190000F8BD254310003570EEE7BFF35F8F00236D
:101910002B608CF31088012040424346002BECD012
:10192000089801F0E9FFC0462C0100D00021044BCB
:10193000044ABFF35F8F02C39342FAD17047C04697
:10194000000100D0800100D0044A1078431CDBB2B3
:10195000172B00D9102313707047C0469D18002024
:1019600010B5064B064C82B00100009318221F23CD
:101970002000FFF78DFF02B010BDC046847101103A
:10198000743E002001238340002904D0034A1360E1
:10199000034A13607047034A1360FBE780E200E0EC
:1019A00000E100E080E100E001228240034B1B687F
:1019B00013405A1E9341D8B27047C04600E100E080
:1019C00001238340014A13607047C04600E200E0F3
:1019D000084B10309B688000C358002B07D0064A84
:1019E00000209B1A5F229A424041C0B270470020FB
:1019F000FCE7C04600ED00E0A0180020024B1030CC
:101A00009B688000C058704700ED00E070B50D0085
:101A1000EFF3108672B60F4A1368002BFCD0BFF3A9
:101A20005F8F0D4B10309B6884001B590B4A93420B
:101A300003D09D4201D001F077FF074B9B681D51F9
:101A4000BFF35F8FBFF35F8F0022024B1A6086F3F4
:101A5000108870BD240100D000ED00E0CD01001021
:101A6000F0B557464E46DE464546E0B585B0060021
:101A700000911700EFF3108B72B66A4A1368002BBF
:101A8000FCD0BFF35F8F0025674B5D579A46002D52
:101A900000DA8BE06B00654C01935B199B00984664
:101AA000A146C1444B4652469B7910361370604B99
:101AB000B6009B6899590B1B5F2B33D95D4B99423C
:101AC00000D0ACE0019B42469C465B4B6544AD00B8
:101AD00063535A4B0232A218043B9B1A1B05584A07
:101AE0005B0D651913436B80564B0121AB80FF23BF
:101AF000AB71009BEF71AB604B460B4319004C4B35
:101B00009B689951BFF35F8FBFF35F8F0022454BF6
:101B10001A608BF3108805B0F0BCBB46B246A946EC
:101B2000A046F0BD01200A008243D3798C46BB4217
:101B300031D84546130044491B1B5B415943090DED
:101B40003D4B63533D4B02356519043B5B1B1B0545
:101B50003B4D5B0D2B43AA464D466B800425AC469E
:101B60005546E044131F44441B1B1B055B0D1D43DE
:101B70004B46997100999D8099604946DF71334BBE
:101B800001431360BBE75800C01880002018C179DA
:101B9000B94211D902000623D356002BF3DA02937F
:101BA000131D9A462A4B6146039319E001F0BCFECF
:101BB000002553465D576DE7908802934005131D3D
:101BC0009A46031561469C464046D4446346043019
:101BD0002018181AE0230005400D1B02184303903B
:101BE00004235B429C46E14450464B461B1A1B05AE
:101BF0005B0D9C46124B95719846634640460343E5
:101C00009380019B5A199200039BA418A380029B06
:101C10000E4AA371009B2260E771A3606FE701F099
:101C200083FE4FE7240100D07F430020A01800204E
:101C300000ED00E0CD01001000A1FFFF0019002021
:101C400000E0FFFF01BDFFFFAAAA00000148804796
:101C500001BD0000F0B5DE4657464E464546E0B5AC
:101C60000C0083B0EFF3108872B65D4A1368002B46
:101C7000FCD0BFF35F8F5B4B5B499A680300103366
:101C80009F00D5598D4239D0A5424AD0574EAA1B44
:101C90005F2A33D801229246824091464846544AF0
:101CA0001268104001904846524A1060BFF35F8F9F
:101CB000EFF305829346002A35D0934201D001F01C
:101CC00033FE2A0053469A439068844208D175E057
:101CD0004B005B189B00F3189868A04234D01A00A0
:101CE000062151560029F3DA844253D0019B002B80
:101CF00026D04A46404B1A603D4B1A60394B9B68D0
:101D0000DD51BFF35F8FBFF35F8F0022344B1A604A
:101D100088F3108803B0F0BCBB46B246A946A04683
:101D2000F0BD0D00EAE72A0053469A4390688442CA
:101D3000D6D1062010561300002809DA0D0031E034
:101D40004A462C4B1A60D9E706201856002822DB99
:101D500042001118890074188A46A1689960E179D7
:101D6000D971062161569971002925DBA488F11AE1
:101D70006405241554440919E0240905490D240279
:101D80002143998013181D4A9B001178F31899710B
:101D90001070ABE713005946002914D1FF3191713F
:101DA0001749918015490A789A71164A9B1B5B4125
:101DB0005A43120D0A7099E71349E2E706201056BC
:101DC00013000028C4DA114A1149D21A083A500205
:101DD000400D014399800F4952080A43DA8085E794
:101DE000240100D000ED00E0CD010010A01800207B
:101DF00000E100E080E100E080E200E07F430020BD
:101E000001BDFFFFAAAA000001BD00000A190020C1
:101E100000F0FFFF00F8FFFF70B5EFF3058101242C
:101E20000443EFF3108C72B62D4A1368002BFCD0DC
:101E3000BFF35F8F2B4A05002B4BAD1A6D416B43EF
:101E40001B0D2A4D8900AE685BB27658A6422CD095
:101E50000621515699422CD012215156994234D024
:101E60001E215156994232D02A215156994230D0E2
:101E70003621515699422ED042215156994222D0B4
:101E80004E215156994228D05A2151560724994241
:101E900010D0174A117813708171BFF35F8F002241
:101EA0000F4B1A608CF3108870BDAA68114C545007
:101EB000EFE700246100091989005218FF21917190
:101EC0000D499180E5E70524F4E70124F2E70224B7
:101ED000F0E70324EEE70424ECE70624EAE7C04633
:101EE000240100D0A0180020AAAA000000ED00E004
:101EF0007F430020CD01001001BDFFFF054B064AC6
:101F00001360064A136053609360D360136153619A
:101F1000936170478080808000E400E004E400E08A
:101F200010B5084B084C82B0010000930022052335
:101F30002000FFF7ADFC002801DB1F23181A02B0B8
:101F400010BDC046A07101108543002070B504008B
:101F50000E001500FFF7F8FC0100200000F006F865
:101F6000A680E580BFF35F8F70BDC046024B9C46E4
:101F700061448900016070474000003410B50400DE
:101F8000FFF7E2FC01002000FFF7F0FFFF232371C1
:101F9000BFF35F8F10BDC04610B50400FFF7D4FC3F
:101FA00001002000FFF7E2FFFF23A380BFF35F8F54
:101FB00010BDC04610B504000120FFF7D1FC034B53
:101FC000C3189B002360BFF35F8F10BD4000003437
:101FD000034B9C46614489000160BFF35F8F7047EB
:101FE0004000003483680B4810B584466144624465
:101FF0001201090159189B185C684A680120944233
:1020000001D802D00020C0B210BD1A680B689A42F5
:10201000F9D8F7E7FFFFFF0F10B508000B690C00B8
:102020009847002802D02068616810BDE060002158
:102030000020FAE70A4B1968EFF3108072B60A68BD
:10204000002AFCD0BFF35F8F1B68BFF35F8F0022B5
:102050001A6080F3108840BF002000217047C046FE
:102060003C430020F8B5574645464E46DE46E0B5AF
:1020700098460CAB1C780DAB1B78070091469A462E
:102080000568002C5ED1AC7B002C3BD06600296833
:102090003619033E89194B78AB73002B00D1EB73D3
:1020A00000238B704B700B702D4BE218BB68120134
:1020B0009B184A461A6042465A600A9A9A600B9ADE
:1020C000DA6000238B704B700B706B7B9B46002B90
:1020D0002BD022005946A8686B6898472A680028C8
:1020E00016D05B4658465B005B449619033BB070C4
:1020F000D118D35C002B00D073705B460C706B73EF
:102100005C4513D0F0BCBB46B246A946A046F8BD1C
:102110005B465B005B44033BD3189C709119925D56
:10212000002A00D05A705B460B706C734A464346D7
:10213000387D00F0F5FC051E0AD10E9B002BE1D086
:102140001D70DFE7660029683619033E8919ABE781
:102150005346002BF1D12100386800F005FFECE771
:10216000FFFFFF0FF0B5DE4657464E4645460023BB
:10217000E0B58BB00893684B8200D45800239B468F
:10218000099000F039FC02000B006068EFF3108A40
:1021900072B6564601680029FCD0B246BFF35F8F85
:1021A00021684F7B8C46002F2ED0A5685B49A9463D
:1021B00079180901894449460868496805000E00F4
:1021C000AD1A9E41002E5FDD02000B00099800F061
:1021D000A7FC0023002299460023069207930023C0
:1021E00098466368BFF35F8F5A461A608AF3108877
:1021F0004346002B12D10028C3D10BB0F0BCBB4624
:10220000B246A946A046F0BD00230022994600230D
:1022100006920793002300209846E2E7089B494670
:1022200018023843C047626805000E00EFF3108AB9
:1022300072B61368002BFCD0BFF35F8F002E41DB1A
:102240002B00334302D02369002B56D12368D97B5E
:10225000002905D01A68480041185218033A5770EF
:102260009A7B002A00D19F73DF73E268013FD35D40
:102270000133D3555B4623616368BFF35F8F5A46D2
:102280001A608AF310887CE7002E02D1002D00D05E
:102290009AE70021604600F0E5FD4B461A685B684E
:1022A000069207934B469B6898464B46DB689946D7
:1022B000E368DB19013B1B7808931B02034323618E
:1022C00000208EE72369002BC0D0069A079B80214F
:1022D000521BB34109068B4202D30122104B5242DA
:1022E00000210491013103914946019141462000AA
:1022F00002970091FFF7B6FEBCE700F07DFB2A00D5
:10230000330012184B41802109068B42E8D3012289
:10231000034B5242E4E7C04618430020FFFFFF0F83
:10232000FFFFFF7F10B5144C6368002B04D00A2117
:102330001248FFF71BFE10BD2300114A1021206830
:1023400000F0A6FC032000F04BFB032000F050FC43
:1023500003200C4900F09EFBFFF7F6FA0A4B9C465F
:1023600003232375D0231B061B6860446375074B4A
:1023700080006060DC60DAE7181900203C43002030
:10238000E51F0010652100104000003418430020B4
:102390000048704718190020F0B557464E4645468C
:1023A000DE46E0B585B0019310AB1B7806000393C1
:1023B00000239A46984600927268EFF3108B72B62B
:1023C0001368002BFCD0BFF35F8F3568AC7B002C0B
:1023D00000D16FE067002B683F19033FDB195A7883
:1023E000AA73002A00D1EA734B4AA118B268090106
:1023F000521800980199106051600E9991600F99E0
:10240000D16042469A705A701A706B7B9946002BC5
:1024100000D170E022004946A8686B6898472A6896
:1024200000285BD04B4648465B004B44D719033B22
:10243000B870D118D35C002B00D07B704B460C7069
:102440006B734C4558D0F3681B19013B18787368BF
:10245000BFF35F8F42461A608BF310885346002B00
:1024600008D10002204305B0F0BCBB46B246A946E5
:10247000A046F0BD039B002B4BD00E9B00200F9974
:102480009847030004000D000B4342D000291ADADC
:10249000009A019B121BAB4100920193802212060D
:1024A000934204D301231D4C5B4200930194039B90
:1024B0009A4681E77368BFF35F8F1C608BF31088C7
:1024C00001204042CFE700F097FA802224184D41C6
:1024D0001206009401959542E9D3E3E74B465B0071
:1024E0004B44033BD3189C70D119D25D002A00D015
:1024F0005A704B460B706C73307D009A019B00F054
:102500000FFB824600289ED02100306800F02CFD91
:1025100099E70020A7E7C046FFFFFF0FFFFFFF7FFF
:10252000407D7047F0B557464E46DE4645461100A1
:10253000E0B585B006009C46109F194300D1EDE040
:102540006146DB170193009353401C00019B4B40F5
:102550001D0000980199241A8D4163460E997B60F5
:102560000F9BBE607B6139613A6000F045FA8023C1
:10257000001969411B0600900191994204D301237F
:102580006B4C5B420093019400239846694B109773
:10259000039300239946109B3700464698467A6875
:1025A000EFF3108B72B61368002BFCD0BFF35F8F74
:1025B0003D68AC7B002C00D179E063001B19033B24
:1025C0001A00944602932B6863445A78AA73002A2F
:1025D00000D1EA73584AA118BA6809015218009844
:1025E000019910605160039991604146D1604A465B
:1025F0009A705A701A706B7B9A46002B00D17FE05C
:1026000022005146A8686B6898472A68002800D1C4
:1026100068E053465B005344033B9C46D118534645
:102620000298101883706346D35C002B00D043706F
:1026300053460C706B733500544562D0FB687A6862
:102640001B19013B1B78BFF35F8F494611608BF369
:102650001088002D0CD147461B022343013528006A
:10266000FB6005B0F0BCBB46B246A946A046F0BD33
:10267000434640461B699847061E24D042461468CC
:10268000556822002A434FD0002D1FDA009A019B83
:10269000121BAB410092019380221206934200D29A
:1026A0007DE70123224C5B420093019477E73E00D3
:1026B00047467368BFF35F8F1C608BF3108801235C
:1026C00000255B42CBE747460023C8E700F094F9BA
:1026D000802224184D41120600940195954200D2A3
:1026E0005DE7DEE753465B005344033B0298D31893
:1026F0009C701118125C002A00D05A7053460B705F
:102700006C73387D009A019B00F00AFA051E00D117
:1027100094E72100386800F027FC8FE700230124AC
:10272000002501229C4618E747460500002396E74E
:10273000FFFFFF7F19200010FFFFFF0FF0B504001F
:102740000D0006267642F717C64636196F4100B5CA
:1027500084B08F4214D811D000F04EF932003B0003
:10276000121A8B41002B15DC002B3ED020002900D3
:1027700000F080F904B080BCB846F0BD8642EBD9C9
:102780000026002700F038F932003B00121A8B4176
:10279000002BE9DD002302930193154B32000093D7
:1027A00014483B00FFF7F8FD0028DFDB00239846C4
:1027B000BC46114A114F7B6A9C4504D8B96AB142A4
:1027C000D4D29C45D2D11168EFF3108072B60B6859
:1027D000002BFCD0BFF35F8F1368BFF35F8F4146C0
:1027E000196080F3108820BFE5E7002ABED0D1E74A
:1027F00035200010181900203C43002000400540FF
:1028000070B5060000F0F8F8FA2204000D0000236D
:1028100030000021920003F06DFA80230019694115
:102820001B06994202D3012002494042FFF786FF6E
:1028300070BDC046FFFFFF7FF0B5EFF30583CE46C6
:10284000474680B505000C0085B0002B0DD0324AFC
:102850000020536A9C4203D8926A0130AA4232D3C4
:1028600005B0C0BCB946B046F0BD2C4E02930193F2
:102870002B4B0200009330000B00FFF78DFD031E71
:10288000E5DD20BF7168EFF3108772B60A68002A91
:10289000FCD0BFF35F8FDAB294463068427B62456A
:1028A00016D0FF2201681A408946510088464946E1
:1028B000904441440339897800290BD1326993420D
:1028C00010D131610EE0E31A5A1E9341D8B2C7E726
:1028D000FF221A40F1681B0A8A18013A1278DBB20B
:1028E0009A4214D07368BFF35F8F00221A6087F397
:1028F0001088094B00205A6A9442B1D89B6A013073
:10290000AB42ADD2A41A631E9C41E0B2A8E7614677
:1029100000F02AFBE6E7C0460040054018190020F9
:1029200035200010F0B5EFF30582D6464F464646F7
:102930001000C0B51038EFF3108872B6214C236830
:10294000002BFCD0BFF35F8F0123190081401E4D87
:102950001F006963AA461D4D29601D4D2E78AC46A7
:102960003500C5402F402B4215D053465F6A194BA6
:102970008500EB589F4218D36246174B8E43EB58A5
:102980001670BFF35F8F0022226088F31088002B3F
:1029900006D0984704E0BFF35F8F276088F3108864
:1029A000E0BCBA46B146A846F0BD0C4B92009C462E
:1029B000624413681360BFF35F8F0023236088F3C2
:1029C0001088EDE7280100D0004005403C7005402C
:1029D0008443002048430020543D0020D03F054060
:1029E00010B5034B01001800024AFEF72FFF10BD7F
:1029F0007C430020BC710110034B596A0A00986A9D
:102A0000596A8A42FAD170470040054070B5040007
:102A10000D00174A536A1900966A536A8B42FAD11D
:102A20003000190024184D41AB4216D813D0104B7A
:102A30002A005B6A9D4203D90D494B6A9342FCD33D
:102A4000934207D10A4A02E0516A994202D1916A3F
:102A5000A142F9D370BDA642E9D9054B5B6A1C00BF
:102A60005A1CEFD0012201246442E5175242E3E7E9
:102A700000400540064A536A9942FCD807D1044BEE
:102A800002E05A6A914202D19A6A8242F9D37047AF
:102A90000040054070B504000D00EFF3108672B6DB
:102AA0001A4A1368002BFCD0BFF35F8F002D1BD098
:102AB0002000FEF7A3FF164981420AD02000FEF74E
:102AC000A5FF01212000FEF75DFF0123A340114A6D
:102AD0001360114BA400E550BFF35F8F00220B4B36
:102AE0001A6086F3108870BD0121A1400A4BA20034
:102AF000D5500A4B20001A788A4305491A70FFF70F
:102B0000A9F800212000FEF73DFFE5E7280100D0ED
:102B10002529001038600540543D002084430020E2
:102B2000F0B54F46D6464646C0B507002B4C616A05
:102B30000D00A66A616AA942FAD18B4208D805D075
:102B40000120E0BCBA46B146A846F0BDB242F7D972
:102B5000EFF3108A72B6224801680029FCD0BFF357
:102B60005F8F0125BD401F491C4C88460978894666
:102B70002943C9B28C46414660460870391D890018
:102B800065630A511849B8004350216A0020294260
:102B900019D0616A0800A66A616A8142FAD18B4243
:102BA00019D801D1B24216D8CC450BD00B4B1F22FD
:102BB0001D625D6301233A4093400C4A1360434613
:102BC0004A461A700120BFF35F8F0022044B1A603F
:102BD0008AF31088B5E70020F5E7C04600400540BD
:102BE000280100D0844300204843002080E200E018
:102BF000EFF3108C72B60A490B68002BFCD0BFF3C0
:102C00005F8F01238340074A0748136202789A4383
:102C10000270BFF35F8F00230B608CF31088704746
:102C2000280100D0004005408443002070B5050015
:102C30000E001400002923D0002A12D080686B688F
:102C40009847296800280ED063001B197200033BC7
:102C50009219CB18033A9E7088188A5C002A11D109
:102C60000470300070BD73009B196200033B1219A1
:102C7000CB18033A9C7088188A5C002A05D106702C
:102C80002000EFE75A700470EBE75A700670F7E720
:102C900030B583600023CCB24373013304734260C8
:102CA0008373C4730D000068012C06D9421C0133E4
:102CB000DBB2137003329C42F9D1FF2129404B0053
:102CC0005B18C01800230338437030BD70B5050091
:102CD0000C1E07D0630001681B19033BCB185A7800
:102CE000002A01D1200070BD500080180338091857
:102CF00000204E784870210058702800FFF796FF9A
:102D0000310004002800FFF7E1FF0600002C26D068
:102D10000028E7D021003200A8686B68984729682E
:102D200000280ED073009B196200033B1219CB18C8
:102D3000033A9C7088188A5C002A00D05A7006708A
:102D4000D0E763001B197200033B9219CB18033ABA
:102D50009E7088188A5C002A00D05A700470340073
:102D6000C0E7C046F0B557464546DE464E46E0B59C
:102D70000D006F0001687F19033F0400C85D83B038
:102D80000192CA19002850D043001B18033BCB18EE
:102D90005E78B446002E1AD1019E002E42D0E67B0A
:102DA000002E04D073009B19CB18033B5D70A37BEE
:102DB000002B00D1A573E57300282FD10023537099
:102DC00003B0F0BCBB46B246A946A046F0BD7200B7
:102DD0006244033A8A185178884600215170894626
:102DE0005970320001002000FFF720FF4346824661
:102DF000002B07D05B0021684344033BCB185A7873
:102E0000002A16D1424651462000FFF70FFF2168E5
:102E1000019BCA19002BC2D10028CFD043001B1838
:102E2000033BCB1800219970C8E7019B002BB6D15A
:102E3000C4E750008018033809184878834648468C
:102E40004870587041462000FFF7F0FE5946804612
:102E50002000FFF73BFF414602002000FFF7E6FE9F
:102E60008046CFE7F0B557464546DE464E46E0B5CC
:102E700083B00191457B04006F0000687F19033F18
:102E8000C15DC219002952D04B005B18033BC31827
:102E90005E78B446002E1CD1019E002E44D0E67B05
:102EA000002E04D073009B19C318033B5D70A37BF5
:102EB000002B00D1A573E573002931D10023280030
:102EC0005370617303B0F0BCBB46B246A946A0463E
:102ED000F0BD72006244033A8218507880460020A8
:102EE00050708146587032002000FFF79FFE434625
:102EF0008246002B07D05B0021684344033BCB187C
:102F00005A78002A17D1424651462000FFF78EFE1C
:102F1000019B01002068C219002BC0D10029CDD02F
:102F20004B005B18033BC31800209870C6E7019B59
:102F3000002BB4D1C2E75000801803380918487834
:102F4000834648464870587041462000FFF76EFEA1
:102F5000594680462000FFF7B9FE41460200200096
:102F6000FFF764FE8046CEE770B5050000292CD03F
:102F7000437B8B422ED04C0000686418033C04193C
:102F8000A278002A21D053009B18033BC25CC618CC
:102F90008A4202D11BE0002A08D053009B18033B51
:102FA000C3185A788A42F6D162785A7000230122F7
:102FB0002800A3706370FFF7D5FE697B020028002C
:102FC000FFF734FE6873012000E0002070BD6378D5
:102FD0003370EBE701221900FFF7C4FEF2E7C046A9
:102FE00070B516000D0019000400FEF7BFFF2900A0
:102FF000701C02F089FF0023E681A5816060A36058
:1030000070BDC04670B502680400EFF3108572B65B
:103010001368002BFCD0BFF35F8F20896389E2899E
:10302000C31A01D5561C9B19934208D12368BFF3DC
:103030005F8F00221A6085F31088002070BDA2897E
:1030400063685043181802F09DFF00221000238986
:10305000E18901339BB29942504141420B402381A7
:103060002368BFF35F8F1A6085F3108840BF01208B
:10307000E4E7C04670B5040008002268EFF310864C
:1030800072B61368002BFCD0BFF35F8F658923896C
:103090005B1B02D5E28901329B18002B07D1226805
:1030A000BFF35F8F136086F31088002070BDA28984
:1030B00061685543491902F065FF002210006389D9
:1030C000E18901339BB29942504141420B406381F7
:1030D0002368BFF35F8F1A6086F3108840BF01201A
:1030E000E4E7C046F8B5CE464746040080B5062062
:1030F0000E0000F0A9FA051E51D0524B5249E218B9
:1031000053425A418023DB039C4692054F4B624455
:103110001A604F4B1A6010008B689843FBD1494BE3
:103120004C4AE31859424B4180215B00490006207C
:10313000995200F089FA3100C00001F0B3FFC309D1
:1031400032D14022012190466162A362256BEB07D8
:1031500036D427008026E36A00232C3776013E43CD
:1031600033600620256300F06FFA4146800001F0CD
:1031700099FF236B05009846DB073BD46023E26A86
:103180005A400E331340336043462363802310229A
:103190009B013B431A60304B23630323A364280045
:1031A000C0BCB946B046F8BD2C4A93423FD9002373
:1031B0002B492C4A6162A362256B9046EB07C8D568
:1031C0002200C02330329B011343234A06201A6099
:1031D000666AA36AB601F61800F036FA224901F0D1
:1031E00061FFB6020100300001F05CFF0021FFF733
:1031F0000DFCAEE72200C02330329B011343164A78
:1032000006201A60636AA26A9B019946914400F005
:103210001BFA4B4614499B02994601F043FF0100FB
:10322000484601F03FFF0021FFF7F0FBA6E77F22B1
:103230009901884602400132520819009044130057
:1032400082E7C0460080FCBF00C0004000E00040B4
:1032500000F000405843002001030000FEFF000082
:10326000FFFF0000C0FF3F004E0E0000F0B54546D6
:103270004E46DE465746E0B583B016000C9A050070
:1032800088469A4200D975E01A0E93461B02180030
:103290000193594600230C9A01F042FF364B6C0013
:1032A0009C466419A400644463680700834200D20A
:1032B00060602B1FDBB29946012B36D9C0238022D8
:1032C0009B01234312011A602C4BAD0059599A46B9
:1032D000002907D0586901F0E5FE013043001B18B2
:1032E000033BFDD2226873015340E0221A40802341
:1032F0005B0123431A604A46012A2ED9802380228B
:103300009B01234312011A60594600233A00019899
:10331000676001F005FF53465851012003B0F0BC2F
:10332000BB46B246A946A046F0BD4346012BC5D1D7
:10333000C02303229B0123431A60023AA3681A4266
:10334000FCD0226873015340E0221A4080235B01C5
:1033500023431A60094AAD00924642462168514013
:1033600003220A401A60012243469A40A3681A4287
:10337000FCD0C3E70020D1E70080004018340020D3
:1033800010B50C2082B000F0B5F9FEF741FA002824
:1033900010D08B4B8B488B498B4A186059609860D2
:1033A000D960186159619861D961186259625A628D
:1033B00002B010BD854CA06700F0F2F90122844BE9
:1033C0001A60636C012BFCD10322824B1A607F4A86
:1033D000936B012BFCD1013301217F4A7F4800937D
:1033E000043300F037F905237D4A009301217D481D
:1033F00000F030F97C4B5A68FF2A02D88022520034
:103400005A608022734B6E4C12011A6021690029A8
:1034100007D0606901F046FE013043001B18033BF2
:10342000FDD2E022704B714819680A400260022206
:103430001968514001320A40042102609A68114221
:10344000FCD080216A4A09011160802252005A6032
:10345000684B2361684B5968FF2900D85A600322E2
:1034600001215B4B1A60644A93681942FCD0E02347
:103470001068034061480360126803234A40022138
:1034800013405D4A036093681942FCD080215C4B75
:103490000901196080215B4B4900516063615A4BFF
:1034A0005A68FF2A00D859608022584B12011A60CE
:1034B000E169002907D0606901F0F4FD01304300A3
:1034C0001B18033BFDD2E0234F4A11680B405049C3
:1034D0000B6080214F4B090119608021394B490055
:1034E0005160E3614C4B5A68FF2A00D85960802232
:1034F0004A4B12011A60216A002907D0606901F065
:10350000D1FD013043001B18033BFDD2E023424AAA
:1035100011680B4042490B608021424B0901196040
:1035200080235B0053608022264BD20223623E4BF5
:103530005968914200D25A6080223C4B12011A60B5
:10354000616A002907D0606901F0ACFD01304300D9
:103550001B18033BFDD2E023334A11680B4034496A
:103560000B608021334B090119608023DB0253601B
:10357000154B6362304B5A68FF2A02D880225200F2
:103580005A6080222D4B12011A60A169002907D0D0
:10359000606901F087FD013043001B18033BFDD239
:1035A000E023254A11680B4025490B608021254BFB
:1035B0000901196080235B005360124BA361F7E699
:1035C00018340020006CDC021BB7000000800040B3
:1035D0003CB0004030B00040002F685900800240ED
:1035E000008C864700C00240308000403090004090
:1035F00030A00040001BB7003C8000403C900040E1
:103600003CA00040405973075480004054B0004033
:103610005490004054A000406080004060B00040E2
:103620006090004060A000406C8000406CB00040A2
:103630006C9000406CA000404880004048B00040C2
:103640004890004048A00040014B8000C05870479F
:1036500018340020F8B5040021481D0017000E00A2
:1036600001F020FD0100380001F01CFD069B29043B
:103670001B0319432368002B20DB1A4B1A4DE21859
:1036800053425A4180235B019C461203174B62440C
:103690001A60174B1A601700AB689F43FBD1C0221A
:1036A000231D92011A4321232660A0601360236822
:1036B000002BFCDA0823E1601360F8BD3F23226889
:1036C0001340B342D9D1A3681B051B0D8342D4D14B
:1036D000EE22E368D20213408B42CED1EDE7C04622
:1036E000001BB7000040FDBF00C0004000E00040EC
:1036F00000F000408023024A9B000343D3627047DE
:103700000080054010B580241C4BE4051C60002897
:103710001AD001231A4C18431A4BDC611A4C44404E
:103720001C62596298628021144BC90519601748C0
:1037300017490860E021C9041960002A07D18022D6
:10374000144B12061A6010BD0E4BD861EBE7530103
:103750009B1A9B009A18802312015B049A4209D29B
:1037600013000D490B60074B5A608022094BD205AC
:103770001A60E8E7094B1A00F3E7C04600B00540BD
:10378000D3C007B0008005402D3FF84FFCFF01007B
:103790000820014000A0054008430020FFFFFF0073
:1037A000AA23064A1B0113602F230549D360054B4A
:1037B00019605368002BFCDA7047C0460040024095
:1037C00000B0FA00006002402C4B2D4A70B51A6020
:1037D0002C4A2D4B2D491A6014008B689C43FBD159
:1037E0002B4D2C4EB54208D2013E761BB60808CDB3
:1037F000984723000134B342F9D1FFF7C1FD264AAF
:10380000214B1A60214A9368DB43DB01DD09002B61
:10381000F9D14022214B224C224E9A675A671A67EF
:10382000DA66B44208D223682000002B20D0083486
:10383000FEF7B2FBB442F6D31B4C1C4EC022B1685B
:10384000200002F09FFBB460FEF770F8FEF756FB15
:10385000FEF768FD164C174EB44208D2013E361BE7
:10386000B60808CC98472B0001359E42F9D170BDAF
:103870000834FEF783FBB442D5D3DDE700E0004017
:10388000BFCDFBFEFE7F3C0000F0004000C00040CA
:103890002022002030220020FFFFFF0100F0014025
:1038A00000220020202200200000002000ED00E087
:1038B000302200203C22002000BEFDE7094A030020
:1038C0001068002805D00849C3188B4207D8136038
:1038D000704706480449C31810608B42F7D901208D
:1038E0004042F5E7EC3E0020000004208843002021
:1038F00010B5FFF7E1FFC0460FB400B5084883B02C
:1039000002F026FC049B002B07D005A918000191AA
:1039100001F04EFB034802F01BFC0120FFF7CCFF37
:10392000E07101106883011010B50148FFF7E4FF52
:10393000F07101109A4200D2885470477047C04617
:10394000F8B557464546DE464E46E0B598460A9BD2
:1039500006009A460D9B0F00934615009B0710D159
:103960000B9B0C9A93420CD213005C460B9A9D1A47
:103970005D4422004346013439002020B047A5426F
:10398000F7D10B9C6319002C09D01D0053462A1B4C
:10399000013C185D39004346B047002CF6D10D9B21
:1039A0009B070ED55B46EC1A0C9BA34209D999469E
:1039B0002A004346390020200134B0470135A14593
:1039C000F6D82800F0BCBB46B246A946A046F8BDD2
:1039D000F0B54F464646D646C0B584B098460EABC5
:1039E0001B7894469946129B0D9C109F119E9A0736
:1039F00024D4002E6AD1BC4220D201221A40924621
:103A0000202C00D1CBE00C9A551E302201E0202C56
:103A100030D001342A55A742F9D85246002A0DD099
:103A2000B4420BD20C9A551E3022202C02D126E033
:103A3000202C61D001342A55B442F9D1DA0634D5AC
:103A40005A0562D4002C5CD10F9A102A00D191E063
:103A5000022A00D1A1E030220C9C227001244A46A7
:103A6000002A5CD15A0700D47DE02B220C9D2A55F8
:103A700001341CE05246002A02D0202E3CD92024DA
:103A8000DA0614D55A0512D4202F00D197E0202E43
:103A90003BD120261F2234000F9D102D00D181E044
:103AA000022D4CD030250C9FBD54202CD7D1039330
:103AB0000C9B62460093029643460194FFF740FF39
:103AC00004B0E0BCBA46B146A846F0BD01221500DC
:103AD0001D40AA461A4227D04A46002A33D10C324A
:103AE0001A4230D1BC429BD2202C00D08BE7202E32
:103AF000C5D8DA06A4D4DAE72024DA06D7D55A05E1
:103B000003D4A74221D0B4421FD00F9A102A21D04B
:103B1000022A10D0202CCAD022000134C2E72D2264
:103B20000C9D2A550134C2E7BC4200D386E7202C05
:103B300000D068E7E1E7202CB9D0220001346225EB
:103B40000C9FBD54E6E7013ECCE7621E012C00D17C
:103B50007AE7A1E79A0616D4202CA8D078220C9DEB
:103B60002A550134D6E71A07A1D520220C9D2A55E3
:103B700001349CE79A060ED478220C9C22703022E5
:103B8000627002246BE7202C91D058250C9A1219F0
:103B900015700134BEE75822EFE76222EDE7002AF4
:103BA000A7D1AAE7023C9D0604D478250C9F3D5579
:103BB0001400B1E758250C9F3D551400ACE71F22B7
:103BC0006AE7C04610B5002800D110BD02F074FAB3
:103BD000FBE7C0460B0010B5002802D049681B68FF
:103BE000984710BDF0B557464E464546DE46E0B50F
:103BF00099B08246894690460993229A239B1000E9
:103C0000190001F020FD002800D0C8E02298239977
:103C10000122D54B524201F011FD002800D0BEE038
:103C2000229823990122D14B524201F0F1FC002845
:103C300000D0B4E0229823990022002301F0E8FC90
:103C4000002800D0E9E1229E239F8023269ADB00F2
:103C50001A400D92269A1A4201D1062324933B0062
:103C6000334300D0B4E0269B1B0500D5BFE1002301
:103C700000240A930B94002304250C93259B002415
:103C8000AB4200D95C1B0223269A1A400D92269A59
:103C9000134203D06B426B415B421C400C9B002BD8
:103CA00007D00A9A0B9B3000390001F048FC06004F
:103CB0000F00229823990022002301F0A9FC00287C
:103CC00003D0802109067B181F00269AA84B009676
:103CD00001971340099E0493249B03940293424648
:103CE00033004946504600F0A7F90400002D67D084
:103CF0002020269A4946024013005A4253415B4213
:103D0000621C18400A92330022004530D0470C9ABA
:103D10006F1ED317D4185C40D30F9B46002501E0DB
:103D2000202D13D008AA94461F23200063440A21A3
:103D300001355E1901F0B6F93031317020000A21E9
:103D400001F0B0F926000400092EE9D805230693F6
:103D5000002304930A3303935B46099E029310AB3E
:103D60000A9A009349463300504605970195FFF79C
:103D70002FFE0D9A0400002A22D04246851A259A69
:103D8000AA421DD9B046574616002200434649466E
:103D900020200135B8470134AE42F6D810E0269B0A
:103DA00042460493259B49460393249B5046029325
:103DB000229B239C00930194099B00F03DF9040091
:103DC000200019B0F0BCBB46B246A946A046F0BDE3
:103DD000684B78009C46400D604401F047FC664A01
:103DE000664B01F0CAFB664A664B01F09FFB664AD0
:103DF0003B031B0B1A4304000D00644B1100300001
:103E0000002201F08AFB624A624B01F0B6FB02001D
:103E10000B002000290001F089FB01F03FFC0C9011
:103E200001F024FC5C4A5D4B04000D0001F0A5FB91
:103E300000225B4B01F07AFB01F030FC594A8346CB
:103E4000594B2000290001F098FB040058460D0052
:103E500001F00CFC554A564B01F08FFB02000B00A1
:103E60002000290001F059FB02000B000A900B9181
:103E700001F083FB04000D000A980B9902000B006F
:103E800001F054FB00220E900F914A4B20002900B4
:103E900001F055FB0022484B01F048FB02000B00EB
:103EA0002000290001F04BFB0022444B01F03EFBB7
:103EB00002000B002000290001F041FB0A9A0B9B35
:103EC0000D0080210400C905002001F026FB02003E
:103ED0000B002000290001F029FB394C02000B00E7
:103EE0000E980F9901F02BFB5C440022264B01F049
:103EF0001DFB2305002201F040FB04000D00020021
:103F00000B00300039000A940B9501F081FB00286A
:103F10005ED123002A00C6250C9963318D42AD4144
:103F200026996D420435090500D4A7E6134364D0F1
:103F300030003900234A244B01F078FB002807D0D9
:103F4000002230003900214B01F062FB002854D1DF
:103F5000249B002B00D191E60D9B5A1E9341249A7D
:103F6000D31A24938AE6C046FFFFEF7FFFFFEFFFDF
:103F7000FFF7FFFF01FCFFFFFB799F501344D33F86
:103F8000B3C8608B288AC63F0000F03F0000F83FAE
:103F900061436F63A787D23F71A379094F930A40AA
:103FA0000000E03F1655B5BBB16B0240EF39FAFE99
:103FB000422EE63F00002C40000024400000184044
:103FC000FF0300002D431CEBE2361A3F80842E4194
:103FD0000C9B0022013B0C932000164B290001F0A2
:103FE000AEFA0A00010003000A910B9293E7002346
:103FF00000240A930B9400230C93249A0C9B9A425E
:1040000014DDD31A013B24938023269ADB001A4344
:104010000023002526920C9330E680221206944657
:10402000229B1E00239B63441F000EE60023249363
:10403000EAE7C04600002440F0B54546DE464E465D
:104040005746E0B595B08B46904699461E9A1F9B01
:104050000A9019001000209D01F0F5FA002800D008
:10406000B0E11E981F990122C74B524201F0D0FACD
:10407000002800D037E11E981F990122C34B5242FD
:1040800001F0DCFA002800D0A7E01E981F9900225A
:10409000BF4B01F0D3FA002800D088E01E981F998A
:1040A0000022BC4B01F0B4FA002800D07FE01E983B
:1040B0001F990022002301F0ABFA002800D0FAE09B
:1040C00000230B938023229C229ADB001C401A427F
:1040D00000D102E1092D00D87EE106A98C462C0012
:1040E000172200233021093C62440133D154EF1AD6
:1040F000202B00D132E1A342F7D10022A44B06923B
:1041000007931E981F9901F0C9FA050001F0AEFA55
:1041100002000B001E981F9901F0FFF9069A079BF9
:1041200001F02BFA0890099101F0DCFA060001F089
:1041300099FA02000B000898099901F0EEF90022A3
:10414000954B0890099101F079FA002800D1D2E04E
:104150000136300001F086FA069A079B01F066FAF4
:10416000002801D000260135AA46002F00D098E093
:10417000280001F07BFA02000B001E981F9901F045
:10418000CCF9854B002206000F0001F041FA0CAB80
:104190009A46002845D10022300039007E4B01F0BC
:1041A0004DFA00283DD1EB073BD5013539E0229B84
:1041B00042460493219B594603930A981E9B1F9CD9
:1041C0000295009301944B46FFF70CFD15B0F0BC2F
:1041D000BB46B246A946A046F0BD229B5B0767D40A
:1041E00003226E4B2299019203912199029100932F
:1041F00042464B4659460A98FFF7A2FBE6E706AA55
:1042000094461723280063440A2101341E1900F044
:1042100021FF3031280031700A2100F01BFF051EFC
:1042200076D0202CEBD10323229A1340012B1DD1F1
:10423000219B002B1AD00B9B002B00D0BBE0229AB5
:104240000C33134200D0B6E0219BA34200D887E094
:1042500006AB9C4617223023624404E021990134C6
:1042600013558C4259D0202CF8D12024229B019444
:104270000393219B02935346B9E706AA944617235A
:104280000A216344300001341D1900F00BFF303166
:10429000297030000A21013F00F004FF092E46D9A1
:1042A0000600202CE9D155460CAB20249A46B8E7ED
:1042B00004223B4B96E71E9A1F9B0020002101F031
:1042C0002CF901230B938023229C229ADB001E9061
:1042D0001F911C401A4200D0FCE60022314B0627F9
:1042E000069207930DE7229B0393219B02930423DD
:1042F00001932D4B7BE7002208980999264B01F08A
:1043000087F9002800D02FE7002E4FD101362BE788
:104310000323229A1340012B68D0202CA6D00B9B9C
:10432000002B1FD02D235246135501349EE75546CE
:10433000202CB9D030223B19002F4BD0172006A9D2
:10434000013409180A55202CAED09C42F6D10CAA93
:1043500092462E2251465C1CCA5462E72024CCE6C9
:10436000202C83D0229B5B0708D4229B1B0700D400
:104370007CE7202352461355013477E72B2352461E
:104380001355013472E7C046FFFFEFFFFFFFEF7FD9
:1043900065CDCD4165CDCDC10000E03F0472011077
:1043A000FC71011080842E410C720110F30700D4BF
:1043B000DAE60136D8E6219B013B2193A34200D9DE
:1043C00046E7AAE7229B0393219B029303230193D1
:1043D000084B0CE72300BAE7074BEA009B185C6820
:1043E0001B682F000693079400248AE6219B002B6C
:1043F00093D020E708720110B0730110F0B5DE46CB
:1044000057464E464546E0B59FB01C00289B934654
:104410000A93CC4ACC4B8A4609901A60002900D1F5
:104420004DE1002320789946002800D14FE1C74B89
:104430004D460893C64B0D930AE02A006E1C5B465E
:10444000099D5146A847350001342078002872D0D4
:104450002528F2D110239946083B9846043B0021B9
:104460009C4602270134207826000300203BDBB263
:10447000102B03D8089A9B00D3589F460300303B6B
:10448000092B6ED900272A2800D18AE000230B933C
:104490002E2800D176E00300683BDBB2122B1BD83C
:1044A000AC4C9B00E3589F46012301341943DAE7E3
:1044B00039430134D7E7634601341943D3E74B4608
:1044C00001341943CFE7434601341943CBE7802336
:1044D0005B0070781943013667280AD824281FD951
:1044E0000300253BDBB2422B1AD80D9A9B00D35810
:1044F0009F460300693BDBB20F2B11D801249C407F
:10450000954AA446904614400C9462464446224282
:1045100000D025E20A2B00D101E1072B00D1D8E021
:10452000099C2A005B465146A04770786F1C741C9A
:104530003D0000288CD1A9462C00CB4503D801238F
:104540005B425B4499465B464A4651460020099DC2
:10455000A84720001FB0F0BCBB46B246A946A04603
:10456000F0BD0027BB00DF1901367F003F1830780F
:10457000303F0300303B092BF4D900230B932E2846
:1045800000D088E780237078DB0019430300303BBC
:10459000741C092B00D82CE12A2800D138E1260010
:1045A00079E70A9B80CB002F03DB60780A93661CB7
:1045B0006CE70222607811437F420A93661C65E72C
:1045C000672800D1C8E1472800D104E2452800D17E
:1045D00004E207200A9B04910733834319000B9AD6
:1045E000039702920CC90998009201930A912A003C
:1045F0005B465146FFF7F6FA741C050025E7707814
:104600006C2800D10DE280235B001943013663E77B
:1046100080239B007078194301365DE77078682825
:1046200000D1F9E180230136194355E7462800D12E
:104630008FE107200A9B04910733834319000B9AEB
:10464000039702920CC90998009201930A912A00DB
:104650005B465146FFF7F0FC741C0500F5E62A00A6
:10466000099C5B46514625206F1CA0473D00741CE9
:10467000EBE6890700D4DEE10A9B2A0098466B1C12
:104680009946434601CB51469846099C5B46C0B2C9
:10469000A047ED19012F00D893E24C46B14656468B
:1046A000099F22005B46013431002020B847AC420C
:1046B000F7D1B24643464E460A93741CC5E6274BD3
:1046C0002078099300239946002800D0AFE6002403
:1046D00033E70A9B1A0008CA9046002B00D1A7E0D6
:1046E000212008430EA98C461F2262440F27AC46A6
:1046F000814615000C9C02E0202C0CD013003800E1
:10470000184001003731092800D8073901342955EC
:104710001A090F2BF0D8654648460C9494E00A9B82
:104720001A0008CA12920B9A002A7BD102241A7826
:104730006442002A1DD0013418199C461C00030055
:1047400010E0C046FD430010044300201472011025
:10475000A472011058720110419000003D39001000
:104760009C4203D0607801340028F9D16346E01AF6
:104770000C908020C000844608408046604601427C
:1047800004D00B980C9C844200D90C9002208446E3
:1047900008400A906046084200D189E1101E00D10D
:1047A00070E14246002A00D11BE10B9A5B1B904648
:1047B000A84444462A00B84699465746B246099E40
:1047C00009E05B463900551CB0474B46585D002850
:1047D00000D12CE12A009442F3D156462500BA4676
:1047E00047460A9B002B00D04CE1129B741C0A9395
:1047F0002BE6002293009B185B0001341A182078E6
:10480000303A0300303B092BF4D926000B9242E6E4
:104810000A9B023604CBD043C01702400B9230787B
:104820000A9338E61A78002AA3D00B98441E82E730
:104830001023080080279843113318430B00FF0012
:104840003B40394200D14DE7082305930B9B2A00DA
:10485000049310230393002302930C9B069001936F
:1048600016AB009351465B460998FFF7B1F84346F3
:104870000500741C0A93E8E5622800D1A6E15828D7
:1048800000D1B1E180230A00DB001A4090461942B2
:1048900000D189E1112399438C46802362469B0015
:1048A0001A40100062461A4200D023E18023644679
:1048B0005B001C401A4200D032E263465B0600D522
:1048C0006BE163460A991B0600D4DBE208C91BB200
:1048D000DA179818504080B20A91DA0F0C92002B28
:1048E00000D118E280460EAA91461F234B4413952F
:1048F000E14645461297B0461E0001E0202C0FD03D
:1049000028000A2100F0CEFB01343719303139700C
:1049100028000A2100F0C6FB2F000500092FEDD862
:104920004646CC46129F139D634606930B9B059704
:1049300004930A2303930C9B029316AB2A00019461
:10494000009351465B460998FFF742F8741C050036
:104950007BE5202319436CE680231B01194338E6CD
:10496000782800D07CE180230A00DB001A409146C1
:10497000194200D1A5E20D239943080003330C939B
:10498000802302009B001A409046184200D078E134
:10499000802304005B001C40184200D007E243065D
:1049A00000D453E2FF210A9B04CB0A4090460A93AD
:1049B0004346002B00D026E1103398434B46002B92
:1049C00000D120E100240B9B069004930C9B0597DB
:1049D00003930023B0E780231B01194320231943CD
:1049E000F7E55B1B99460C9B099C98465B46B346D2
:1049F0005646BA461F002A003B003100A0474B46EE
:104A00000135585D0028F6D143460C933B005746CC
:104A1000B2465E469B46E4E6C023B07819430236B0
:104A20005AE5C0239B00B0781943023654E5564638
:104A3000BA464746D5E6012F00D832E26B1E9846AB
:104A4000B8442C00A9464546B8465746B246099E8A
:104A500022005B46013439002020B047AC42F7D138
:104A60000A9B564601CBBA464746984622005B460B
:104A7000099C5146C0B2A0474D464346ED190A93E2
:104A8000741CE2E40C9BA8469F4200D8ADE6444665
:104A9000B04656467D19099FED1A22005B46013447
:104AA00031002020B847AC42F7D1B24646469CE6DA
:104AB0000C98874200D8F0E1424698467919B946E9
:104AC0005746B246099E0C1A0C922A005B460135E5
:104AD00039002020B047A542F7D15646BA464F4686
:104AE00043460C9A90467A1C0C921A78101E00D0FD
:104AF00057E67AE60822072191460A9B07338B4343
:104B000099444A460ACB0C000A921C43DA0F002C47
:104B10004ED0D817040010904C4011900E9410986D
:104B200011990C005C400F940E9B0F9C1B1A8C413A
:104B30000E930F940EA988461F2300244344129716
:104B4000B046270013951E000E9C0F9DE1460C9267
:104B500001E0202F10D0200029000A22002300F0BD
:104B6000DFFA013730322B00F2550D00220004002D
:104B7000002BEED1092AECD84646CC460E940F9570
:104B80000C9A3C00139D129F634606930B9B05975E
:104B900004930A2302920393CFE6FF230A9904C9E0
:104BA000134018000A9198E6102399438C4674E646
:104BB00043460024002BE7D1002300240E930F94DA
:104BC000B8E743464D460A93741C3EE480230A002E
:104BD000DB001A409146194200D140E10D23994370
:104BE0000B3B08000C93CBE680230A00DB001A4045
:104BF0009146194200D162E10D23202099430333ED
:104C000008430C93BCE66123810600D541230EA91D
:104C10001F228C46DBB262440A3B139714958146EF
:104C200045460C9FB0461293160008E03033DBB2C5
:104C300001343355BD420ED3202C0CD00500390071
:104C4000280000F02FFACBB20929EFD9129A944626
:104C50006344DBB2ECE746464846139F149DB2E638
:104C60006F2800D03CE10C230800984380230A0001
:104C7000DB001A409146194200D02AE108230C9328
:104C80007EE60A99FA3BFF3B0731994301339C4684
:104C90008C4463464A680A930B6890469C461343CB
:104CA000191E06D14B46103100248843002B00D03A
:104CB00089E66121830600D541210EAA91461F2372
:104CC0004B449946C9B20C9B0A3913971495159613
:104CD00045464E46002467469846814612910CE0B0
:104CE0003032D2B2002301343255AB4200D1BCE0A5
:104CF000202C00D1BCE007000D0042460023380004
:104D0000290000F00DFAD2B2092AE9D9129B9C467B
:104D10006244D2B2E6E74346002B00D004E6E2E567
:104D20000A9C08CCDA0F1392002B00D1A5E0D9170A
:104D30005B184B4098460EAA91461F234B440C9596
:104D4000A14645461296E04606001C000A9701E07F
:104D5000202E0FD028000A2100F0A4F90136A7194F
:104D60003031397028000A2100F09CF92F0005002D
:104D7000092FEDD8C4464C4630000A9F0C9D129E68
:104D8000634606930B9B2A0004930A230393139B09
:104D90000190029316AB009351465B460998059724
:104DA000FEF716FE0A940500741CFFF74EFB0A9BE3
:104DB00010CB1493002C04D1102398434B46002BA6
:104DC0002CD16123810600D541230EA91F228C46D8
:104DD000DBB262440A3B12971395814645460C9F0D
:104DE000B0460A93160008E03033DBB20135735544
:104DF000BC420ED3202D0CD004003900200000F05E
:104E000051F9CBB20929EFD90A9A94466344DBB22F
:104E1000ECE748464646129FA846139D0B9B2A0086
:104E200004930C9B06900393002302934346019343
:104E300016AB009351465B4609980597FEF7C8FDEF
:104E4000149B05000A93741CFFF7FFFA03061FD595
:104E50000A9B02CB09040A0C90460A93A8E50C238E
:104E600099430A3B08000C938AE5B84500D83FE710
:104E70004846139F149D159EA5E54346002B00D080
:104E80007EE758E708C9DA17981850400A9124E5D8
:104E90000A9B04CB90460A938AE5010001310C91EC
:104EA00024E60A9F6C1C01CF2A005B46099D5146EF
:104EB000C0B2A84725000A97741CFFF7C6FA202342
:104EC00019430C23994300239946103308000C938F
:104ED00056E508238C460C930D23604698434FE516
:104EE00010230A009A439446692808D180230A00B7
:104EF000DB001A409046194200D1CEE4CAE41C23DC
:104F00000800984380230A00DB001A4091461942AA
:104F100002D10A230C9333E50A230C93DCE7C04645
:104F20000EB4012230B584B007AC08CC064D0100A8
:104F30000094280052420394FFF760FA04B030BC9A
:104F400008BC03B01847C046353900100CB430B562
:104F500085B008AC08CC064D0A000094010028007A
:104F60000394FFF74BFA05B030BC08BC02B01847F9
:104F70003539001010B5054C82B0009313000A00BB
:104F800001002000FFF73AFA02B010BD35390010D9
:104F900000B585B0039101210290009303481300EE
:104FA0004A4202A9FFF72AFA05B000BDD53B00101E
:104FB00010B5094A0300146884B0002C08D00122FF
:104FC00000910648524203A9A047012004B010BD39
:104FD00001F0BEF80020F9E704430020C53B0010B3
:104FE00001480421014B18474019002011500010BE
:104FF000142310B50100188804331B88984710BD8E
:10500000162310B50100188802331B88984710BD7D
:10501000F8B54746CE4680B50F1E19D014239946E1
:10502000043304000025012698464B461888434661
:1050300021681B88984701C4431E984101354042AE
:105040000640AF42F1D13000C0BCB946B046F8BD11
:105050000126F8E7124A936F9B0815D29066D16635
:10506000002905D0FFE7FFE7FFE7516F106F70479A
:1050700004B580210906C2175140002800D0C8435A
:105080000FF0D2FF002104BDF0B5146E556E576FBE
:10509000166FFFF7E3FF1466556657671667F0BD96
:1050A000000000D0114A936F9B0813D2106651661E
:1050B000002905D0FFE7FFE7FFE7516F106F70474A
:1050C00004B5002801D00020C0430FF0ADFF00213F
:1050D00004BDC046F0B5146E556E576F166FFFF7DE
:1050E000E5FF1466556657671667F0BD000000D0EF
:1050F00094464A4A926F9208624601D228E0C0461E
:10510000F0B5464E346E756E776F366F00F020F84E
:105110009446424A14665566576716676246F0BD64
:1051200094463E4A926F9208624601D254E0C046CD
:10513000F0B53A4E346E756E776F366F00F04CF8FE
:105140009446364A14665566576716676246F0BD40
:10515000002B24DB11D000293EDA00B5C9434042C0
:1051600000D1013100F038F8C943404200D101318B
:10517000DB43524200D1013300BD002AEBD10028AD
:1051800001D1002905D00020C90FC90701D1C043B2
:10519000410800B50FF030FF0022002300BD00B52C
:1051A00000290ADBDB43524200D1013300F014F83E
:1051B000C943404200D1013100BDC943404200D142
:1051C0000131DB43524200D1013300F005F8DB43EB
:1051D000524200D1013300BD002923D1002B18D148
:1051E000002A0CD0BC460D4F38667A660021002399
:1051F000FFE7FFE7FFE77A6F386F674670470028E1
:1052000001D00748010000B50FF0F6FE0022002390
:1052100000BD02000B00002000217047000000D0FC
:10522000FFFFFFFF002B00D0BFE0130C28D1002AA6
:10523000E7D080B4114F39667A66FFE7FFE730B4F4
:10524000040C7B6F396F1B0423433B667A66FFE7D0
:10525000FFE7FFE7C04684B27B6F3D6F1B0423432B
:105260003B667A66FFE7FFE7C04600232C042D0C5F
:105270007A6F386F00196941B0BC7047000000D0E8
:10528000F0B594460025140E01D112020835140F12
:1052900001D112010435940F01D192000235D40FCF
:1052A00001D152000135D40B0134254F7C66254CC9
:1052B0003C660E0C93B2FFE7FFE7FFE73C6F6643E7
:1052C000360C7703BE467343DF0B5B04C01AB9414B
:1052D000130C7343DB18C91ACE086643360CB64468
:1052E00093B273431F0F1B01C01AB941130C7343D0
:1052F0001F0B1B05C01AB941860D8F023E43664342
:10530000360C092D24DB520A7243801A7703460AB1
:105310006643360C16235B1BDE40DF40BF19644634
:105320006643821B7046043506330100D940A8400D
:10533000C01900D30131A24206D20023F0BD000003
:10534000000000D0FFFFFFFF121B0130F3D3F1E795
:1053500009277F1BFE406446A2B27243801A00D226
:105360000139220C7243130C1204821A99410B006A
:105370007046043513370100F940A840801900D366
:105380000131002B02D1A2420AD2F0BD013000D37C
:105390000131121BFAD2013BF8D1A24200D2F0BD7A
:1053A000013000D30131121BF7E7F0B51C0C00D01F
:1053B00080E00CB400251C0A04D11B02160E3343F6
:1053C000120208351C0B04D11B01160F33431201C6
:1053D00004359C0B04D19B00960F33439200023599
:1053E000DC0B02D192185B4101351C009718644117
:1053F0000134464F7C66464C3C660E0CFFE7FFE7E7
:10540000FFE7C0463C6F6643360C7703BE4697B253
:105410007743C01B00D20139C01B00D201399FB2B3
:105420007743C91BC91B170C77437E04FF0B801BF6
:10543000B941CE086643360C0C2D33DBB644120B53
:105440001F053A431B0B97B27743C01B00D20139AB
:105450009FB27743C91B170C77433E043F0C801B58
:10546000B941860D8F023E43664329277F1BFE40CC
:105470000C3D7746AF40BF1930BCA2B2ABB272430D
:105480007343801A9941220C7243130C1204801A40
:10549000994102000B000137001BA941F9D2781E87
:1054A0000021F0BD0C277F1BFE4077467F0BAF40ED
:1054B000FF19E0E700245D1C07D0144F7D663966B4
:1054C000FFE7FFE7FFE7FFE73C6F95B29EB265435A
:1054D0006643401BB141150C1E0C65436643360400
:1054E0002F0C3E432D04401BB141994204D20200CF
:1054F0000B0020000021F0BD01D19042F7D3801AAB
:10550000994101349942F2D3F6E70000000000D03F
:10551000FFFFFFFF48404140484018B41B4B5B6809
:10552000FC46019308BD04DFC757001018B4174BA1
:105530001B68FC46019308BD00DFD157001094465C
:10554000134A926F920809D2624618B40F4BDB6877
:10555000FC46019308BD0CDF895A00100C4AF0B5D7
:10556000146E556E576F166F6246FFF7EEFF084ACE
:105570001466556657671667F0BD18B4034B9B68F1
:10558000FC46019308BD08DF2D590010503500205E
:10559000000000D0FFB550404240504059404B40C1
:1055A000594000E0FFB5154F4C00640D03D0BC42DC
:1055B00004D10C0314D80020090D09055C00640D0A
:1055C00003D0BC4204D11C030AD800221B0D1B05CA
:1055D00001264B4009D44B4003D58B4200D1824277
:1055E000FFBD9942FCD19042FFBD0B43DB18034342
:1055F0001343F5D0C9434918FFBD0000FF07000061
:1056000000B5FFF7CFFF01D0002000BD012000BD95
:1056100000B5FFF7C7FF804100BDC04600B5FFF7EA
:10562000C1FF01D9002000BD012000BD00B5FFF77A
:10563000B1FF01D9002000BD012000BD00B5FFF77A
:10564000A9FF804100BD012040054A00121804D87E
:105650005A00121801D8002070470120704700201E
:10566000704700000021002805D17047C11748404D
:10567000401AFAD0C90713B5064B1B6898470CBCF3
:10568000441CA2401005120B0349091B09051943CC
:10569000114310BD384300201F04000010B54C001A
:1056A000620D8023D218DB00D21A5B057E2A10DD42
:1056B0009E3A13DACC170903490819435242D140E4
:1056C000640001341532202A05DAD04008436043D3
:1056D00010BD002010BD0846604310BDC80FC018A3
:1056E000013810BD18B4044B5B6AFC46019308BD39
:1056F00024DF395C0010000050350020132370B502
:105700001D78012D15D010DD1D48FFF779FC1D4CCB
:1057100001008022200000F035FC022D2DD01A4817
:10572000FFF766FC194B186070BD194B154CA3644C
:10573000F5E7174B134C23606360A360E3602361BC
:105740006361A361E36123626362A362E362236333
:105750006363A363E36323646364A364E364236513
:105760006365A365E36523666366A366E3662367F3
:105770006367A367E367A364D1E7054BA364CEE740
:1057800053440000503500204C33000038430020C3
:105790009557001007B5604601880A0A0230DF2AD3
:1057A000FAD1C9B2820804D30288408800041043A9
:1057B00000E00068014A5050039007BD50350020BA
:1057C0000FB403BC0CBCF0B50124E407634000E057
:1057D000F0B50C0DCF0F661E3605891B640503D38B
:1057E000C943404200D30131640D03D0661CF60A60
:1057F00007D0E41B00207F00791C89078912803CB8
:1058000024031D0DDF0F6E1E36059B1B6D0503D394
:10581000DB43524200D301336D0D03D06E1CF60AF8
:1058200007D0ED1B00227F007B1C9B079B12803D55
:105830002D032F1B661B58D4A446202E46DA203792
:105840001400BC401D00BD40F24033412A43801883
:105850005941CB0F05D0C943C04300226442504197
:10586000514162464D0D28D10D0D07D100281FD0A2
:10587000241940414941013A0D0DF9D0640006D385
:10588000013000D30131002C01D140084000013A21
:105890000BD4941CE40A04D112051144DB0719440B
:1058A000F0BDD907204B194300E0D9070020F0BD17
:1058B0000029DDD1002CDBD1F0BD0132C607400844
:1058C000CD0728434908002EE1D0D9E73C2E29DA3C
:1058D000203E40371400BC4000D00124F240144365
:1058E0001A00BB401C43D317ACE7AC46202F08DAA4
:1058F00020360400B4400D00B540F840394128433B
:10590000A5E73C2F0CDA203F40360400B44000D01D
:105910000124F84004430800B1400C43C117EAE7F2
:1059200010001900002494E70000F07FF0B50C0D82
:10593000661E3605891BE60A6405640D02D0651CE7
:10594000ED0A04D0002001210905803C2403A4466F
:105950001C0D671E3F05DB1BE70A6405640D02D0C2
:10596000651CED0A04D0002201231B05803C2403A2
:105970007740644497B484B296B27443070C7E4374
:10598000150C6F4380B26843361802D3012000041F
:105990003F183004350C00197D41844688B29AB214
:1059A00050430C0C62431F0C7C438EB27E43921911
:1059B00002D301263604A4191604170C36186741C1
:1059C00001BC81B29AB25143040C62431B0C5C438C
:1059D00080B25843121802D3012000042418100486
:1059E000130C401863412D185E410020474106BC4E
:1059F00088B293B258430C0C6343120C544389B2DF
:105A000051435B1802D301210904641819041A0CCC
:105A1000091862416D1856410020474118BCF9022F
:105A2000720D1143F0026A0D1043ED020A0D03D10D
:105A30006D1940414941013B124E9B1B7600B34218
:105A40000ED26D0007D30130002671416646354302
:105A500001D1400840001B05C918E4072144F0BDEE
:105A60000BDA013306D1013004D101314F0D01D0E1
:105A70004908F2E7E1070020F0BD013631050020BA
:105A8000EBE70000FF030000F0B51C0D671E3F05AB
:105A9000DB1BE70A6405640D02D0661CF60A04D01D
:105AA000002201231B05803C2403D0252D0600265F
:105AB000F6432E661E096E66CE0FF619B4464900EF
:105AC0004F0D02D07E1CF60A03D000200021403F7B
:105AD0003F033E1BB600B444013F7F05C91B490884
